{
  "contractName": "DappToken",
  "abi": [
    {
      "constant": true,
      "inputs": [],
      "name": "totalSupply",
      "outputs": [
        {
          "name": "",
          "type": "uint256"
        }
      ],
      "payable": false,
      "stateMutability": "view",
      "type": "function"
    },
    {
      "inputs": [],
      "payable": false,
      "stateMutability": "nonpayable",
      "type": "constructor"
    }
  ],
  "bytecode": "0x608060405234801561001057600080fd5b50620f4240600081905550609e806100296000396000f300608060405260043610603f576000357c0100000000000000000000000000000000000000000000000000000000900463ffffffff16806318160ddd146044575b600080fd5b348015604f57600080fd5b506056606c565b6040518082815260200191505060405180910390f35b600054815600a165627a7a72305820c0a7e696672b1e8bc7b34fc714b163d93b216f279d232e3dd1bd1ce14e75dbc50029",
  "source": "pragma solidity ^0.4.2;\n\n/**\n * The contractName contract does this and that...\n */\ncontract DappToken {\n\n\tuint256 public totalSupply;\n\n\tfunction DappToken () public {\n\t\ttotalSupply = 1000000;\n\t}\n \n}\n\n",
  "sourcePath": "/Users/milogillot/Desktop/CODING/Blockchain/token_sale/contracts/DappToken.sol",
  "compiler": {
    "name": "solc",
    "version": "0.4.25+commit.59dbf8f1.Emscripten.clang"
  },
  "schemaVersion": "2.0.2",
  "updatedAt": "2021-01-26T16:04:52.754Z"
}